:03000000020030CB
:02000B000832B9
:10003000759000D2AFD2A975890151AE51AE510071
:100040007480513D51AE900300515D51AE74C0516A
:100050003D51AE90030E515D51AE518451847800F4
:10006000D28C7590113090FDC28C759000A98CAA2D
:100070008A7480513D51AE90031D515D51AE74C0E4
:10008000513D51AE90032C515D51AEE8516BE95199
:0E0090006BEA516B5178758C00758A00013057
:1002000075A038C280C281D28251AEC28251AE7511
:10021000A00CC280C281D28251AEC28251AE75A002
:1002200001C280C281D28251AEC28251AE75A00697
:10023000C280C281D28251AEC28251AE22F5A0C22A
:1002400080C281D28251AEC28251AE22F5A0D2804C
:10025000C281D28251AEC28251AE51AE22C0E0E420
:10026000936005514CA380F7D0E0227137E56051CF
:100270004CE561514C51AE22517F517F5184225146
:1002800084518422C0047C05518FDCFCD00422C040
:10029000037BC8519ADBFCD00322C0027A0451A52B
:1002A000DAFCD00222C00078F4D8FED00022C000D0
:0F02B000C001780179FFD9FED8FAD001D0002221
:10030000202020546F67676C6520535731002020F0
:100310004966204C454420676C6F77730020526516
:10032000616374696F6E2054696D650020436F7559
:100330006E74206973200075F010847146F560E5D5
:10034000F07146F56122B40A0040032437222430BC
:01035000228A
:00000001FF
