:03000000020042B9
:03000B00020030C0
:10003000B287C28CE6F404F58A08E6F4F58C18D28F
:100040008C327550C17551117552D075530F75545E
:100050004975550D75568E75570A7558D675590BD5
:10006000758911D2AFD2A951297850512078507E8C
:1000700003510078527E03510078547E035100787A
:10008000527E03510078567E045100C28C7E02518C
:1000900000785651207E04510078587E045100802B
:0100A000CC93
:100200005105DEFC22C0077F0A5110DFFCD0072217
:10021000758D3C758BB0D28E308FFDC28EC28F2211
:10022000758AFF758CFFD28C2251A851A8513D745C
:1002300080517A51A8900300519A51A82275A03894
:10024000C280C281D28251A8C28251A875A00CC2BC
:1002500080C281D28251A8C28251A875A001C280F9
:10026000C281D28251A8C28251A875A006C280C2A2
:1002700081D28251A8C28251A822F5A0C280C28137
:10028000D28251A8C28251A822F5A0D280C281D2C6
:100290008251A8C28251A851A822C0E0E49360050F
:1002A0005189A380F7D0E022C000C001780179FF16
:0902B000D9FED8FAD001D00022D9
:0E03000020524F4C4C494E472054494D450069
:00000001FF
