:100E1700566F6C742E3A2000206D560054656D7025
:040E27002E3A20003F
:100E0100C1000608000000000000090E0000002ECD
:050E11000020DF43009A
:100D6B00E4F5A0C282C280C2817F38FE120E2B1224
:100D7B000DC77F067E00120E2B120DC77F0C7E0057
:100D8B00120E2B120DC77F017E00120E2B120DC7F8
:070D9B007F807E00020E2B99
:040DC7007F047E0027
:100DCB00E4FDFCC3ED9FEC9E5015E4FBFA0BBB005E
:0F0DDB00010ABA01F8BB7EF50DBD00010C80E4E2
:010DEA0022E6
:100B78008E2B8F2C8B2D8A2E892F7C277D10120A85
:100B880012EF24301209DEAE2BAF2C7C277D101219
:100B98000A127E037FE8CFCDCFCECCCE120A12EF59
:100BA8002430AB2DAA2EA92F9000011209F0AE2BEC
:100BB800AF2C7C037DE8120A127E007F64CFCDCF74
:100BC800CECCCE120A12EF2430AB2DAA2EA92F902C
:100BD80000021209F0AE2BAF2C7C007D64120A12C1
:100BE8007E007F0ACFCDCFCECCCE120A12EF2430B2
:100BF800AB2DAA2EA92F9000031209F0AE2BAF2C13
:100C08007C007D0A120A12ED2430AB2DAA2EA92FE2
:060C18009000040209F047
:100E2B00C280C281D2828FA07F0A7E00120DCBC2FC
:020E3B00822211
:100E3D00D280C281D2828FA07F0A7E00120DCBC2DA
:020E4D008222FF
:100DA2008B2B8A2C892DAB2BAA2CA92D1209C5605D
:100DB20013052DE52D7002052C14F91209C5FF1239
:050DC2000E3D80E2225D
:0C0E4F0075C33B43B104D2AF43C3402243
:080D0F008F3A8E398D388C37C4
:100D1700C2007810120A75E48FC53000FDA917C20A
:100D270000AF3AAE39AD38AC377808120A758FC5BF
:100D37003000FDAB17C200E53AFF8FC53000FDADAF
:100D470017EB7B00FA7E00E97810C333CE33CED899
:100D5700F92BFFEE3AFE7C00EF2DFFEC3EFE3395BC
:030D6700E0FDFCB0
:010D6A002266
:03004B00020DEBB8
:100DEB00C0E0C0D0E5C454F02480700585C517D28F
:060DFB0000D0D0D0E03270
:030E5B00D294220C
:020CAA00AB0796
:100CAC00E4F532F531753001F52FEF75F010A47EB7
:100CBC00005470FFEE3395E0FDFCEF4480FFED78BF
:100CCC0008120A888F368E358D348C33E5322536F2
:100CDC00FFE5313535FEE5303534FDE52F3533FC98
:100CEC00C294120D0F8F2E8E2D8D2C8C2BD294E541
:100CFC002EF52EE52D5403F52DE4F52CF52BAE2D0C
:020D0C00AF2E08
:010D0E0022C2
:100A9B00E4F521F522F523F524120E4F120E5B120D
:020AAB000D6BD1
:100AAD00E4F52AF5297528F07527417F04120CAA63
:100ABD008E258F26AC25AD26E412090B7B827A7329
:100ACD00794E78401208001209448E238F247F80BE
:100ADD007E00120E2B7BFF7A0E7917120DA27B0072
:100AED007A007908AF24AE23120B787B007A007957
:100AFD0008120DA27BFF7A0E791F120DA27F031231
:100B0D000CAA8E258F26AC25AD26E412090B7B355C
:100B1D007A2979A5783E1208008F2A8E298D288C86
:100B2D0027E4FFFE7D207C41AB2AAA29A928A8270E
:100B3D001208001209448E258F267B007A00790851
:100B4D00120B787FC07E00120E2B7BFF7A0E79235D
:100B5D00120DA285090E850A0F850B10850C127BCF
:080B6D00007A00790E120DA2BE
:030B7500020AADC4
:10080000EC4D6011E8497017ED33EC3304600DE4F2
:10081000FCFFFEFD22E933E8330470F80209B01250
:10082000097B58046009E4CC248150062850090251
:1008300009BA2840030209B7C0E0EB4A7044B98006
:1008400006D0E0FB0209A6EF4E701CBD8008EBFF4E
:10085000EAFEE9FD80EBE98DF0A4FEE5F00208E98F
:10086000E9CDF9EAFEEBFFEF89F0A4FCE5F0CE89D3
:10087000F0A42EFFE435F0CD89F0A42DFEE435F090
:100880008067EF4E7005BD80D780C3EF8BF0A4ACBE
:10089000F0EE8BF0A42CFCE435F0F8EF8AF0A42CF9
:1008A000E5F038FCE433CB8DF0A42CFCE5F03BF80C
:1008B000EE8AF0A42CFCE5F038F8E433CF89F0A4FC
:1008C0002CFCE5F038CF3400CE89F0A42FFFE5F002
:1008D0003EFEE433C98DF0A42EFEE5F039CD8AF05A
:1008E000A42FFFE5F03EFEE43DFD33D0E0FB5007D2
:1008F0000BBB000F0209BAEC2CFCEF33FFEE33FE0A
:06090000ED33FD02099237
:1009060075F020800E75F010800575F0087D007E6C
:10091600007F003392D530D503120A67EC334010BE
:10092600EF33FFEE33FEED33FDEC33FCD5F0ED2275
:0E093600E5F0247EA2D513CC92E7CDCEFF22B1
:10094400EDD2E7CD33EC3392D524814006E4FFFEAB
:10095400FDFC22FCE4CFCECDCC24E0501174FF800A
:10096400EDC3CC13CCCD13CDCE13CECF13CF0470A7
:07097400F030D5DE020A6736
:10097B00E9D2E7C933E833F892D5EDD2E7CD33ECC2
:07098B0033FC5002B2D5223B
:10099200EC30E7100FBF000C0EBE00080DBD0004C6
:1009A2000BEB6014A2D5EB13FCED92E7FD2274FF72
:1009B200FCFDFEFF22E480F8A2D574FF13FC7D80CB
:0309C200E480EFDF
:03000000020C1ED1
:0C0C1E00787FE4F6D8FD75813A020C6581
:1009C500BB010689828A83E0225002E722BBFE0230
:0909D500E32289828A83E4932263
:1009DE00BB010689828A83F0225002F722BBFE01F8
:0209EE00F322F2
:1009F000F8BB010DE58229F582E5833AF583E8F03D
:100A0000225006E92582C8F622BBFE05E92582C8E8
:020A1000F222D0
:100A1200BC000BBE0029EF8DF084FFADF022E4CCC8
:100A2200F875F008EF2FFFEE33FEEC33FCEE9DEC91
:100A3200984005FCEE9DFE0FD5F0E9E4CEFD22EDD7
:100A4200F8F5F0EE8420D21CFEADF075F008EF2F21
:100A5200FFED33FD4007985006D5F0F222C398FD12
:050A62000FD5F0EA22AF
:0E0A6700C3E49FFFE49EFEE49DFDE49CFC22A0
:100A7500E8600FECC313FCED13FDEE13FEEF13FF5F
:030A8500D8F12283
:100A8800E8600FEFC333FFEE33FEED33FDEC33FCCC
:030A9800D8F12270
:100C2A00020A9BE493A3F8E493A34003F68001F23B
:100C3A0008DFF48029E493A3F85407240CC8C333CB
:100C4A00C4540F4420C8834004F456800146F6DF9A
:100C5A00E4800B0102040810204080900E01E47E1B
:100C6A00019360BCA3FF543F30E509541FFEE4938F
:100C7A00A360010ECF54C025E060A840B8E493A356
:100C8A00FAE493A3F8E493A3C8C582C8CAC583CA81
:100C9A00F0A3C8C582C8CAC583CADFE9DEE780BE39
:010E160000DB
:00000001FF
