:03000000020030CB
:1000300075A000759000519A519A7590FF5100512A
:100040009A519A519A7480513D519A90030E515D84
:10005000519A74C0513D519A900300515D516B7497
:1000600080513D519A90031D515D519A7590805178
:100070006B74FFF590519AE59075F010A4F5F0754A
:100080009040516B74FFF590519AE590AEF075F089
:100090001084E5F02EF530759020516B74FFF590CB
:1000A000519AE59075F010A4F5F0759010516B74AD
:1000B000FFF590519AE590AEF075F01084E5F02EC2
:1000C000F5317590005100519A519A519A748051AE
:1000D0003D519A90032D515D519AE530715974C08C
:1000E000513D519A90033E515D519AE560514CE566
:1000F00061514C519A90034A515D519A9003445179
:100100005D519AE5317159E560514CE561514C51B1
:100110009AE5308531F0A485F050F551516B74802B
:10012000513D519A90034D515D519AE5507159E5F9
:1001300060514CE561514CE5517159E560514CE518
:0D01400061514C519A7420514C519A80FE2F
:1002000075A038C280C281D282519AC282519A7539
:10021000A00CC280C281D282519AC282519A75A02A
:1002200001C280C281D282519AC282519A75A006BF
:10023000C280C281D282519AC282519A22F5A0C252
:1002400080C281D282519AC282519A22F5A0D28074
:10025000C281D282519AC282519A519A22C0E0E45C
:10026000936005514CA380F7D0E022517051702269
:10027000C0007C05517BDCFCD00022C0007BC85153
:1002800086DBFCD00022C0007A045191DAFCD00059
:1002900022C00078F4D8FED00022C000C00178014E
:0B02A00079FFD9FED8FAD001D000226F
:1003000020202045453333372D3230323200202033
:10031000456E74657220496E707574730020526565
:100320006164696E6720496E7075747300436F6D08
:10033000707574696E6720526573756C74004E75C4
:100340006D313A004E756D323A002C20002020525B
:100350006573756C74203D200075F010847168F52C
:1003600060E5F07168F56122B40A00400324372289
:0303700024302214
:00000001FF
