:09000000757012757134020030B4
:100030005187518751007480513D51879003005181
:100040005D518774C0513D518790030B515D748A97
:10005000513D51877431514CE570C4F59074CA51CB
:100060003D518711B2516B748A513D5187743251A1
:100070004CE570F59074CA513D518711B2516B74C3
:100080008A513D51877433514CE571C4F59074CA5F
:10009000513D518711B2516B748A513D518774346F
:1000A000514CE571F59074CA513D518711B2516BB5
:1000B000013074303097022401514C743030960274
:1000C0002401514C74303095022401514C7430306D
:0700D00094022401514C22AF
:1002000075A038C280C281D2825187C2825187755F
:10021000A00CC280C281D2825187C282518775A050
:1002200001C280C281D2825187C282518775A006E5
:10023000C280C281D2825187C282518722F5A0C278
:1002400080C281D2825187C282518722F5A0D2809A
:10025000C281D2825187C2825187518722C0E0E495
:10026000936005514CA380F7D0E0227E3C7FB07DA7
:10027000285176DDFC227589018E8C8F8AD28C30D4
:100280008DFDC28CC28D22C000C001780179FFD9DA
:08029000FED8FAD001D00022D3
:10030000202020204C4556454C20002020205641DE
:100310004C55453A200075F010847125F560E5F0E4
:100320007125F56122B40A004003243722243022CB
:00000001FF
