:10088D00202020202020204100202020202020205A
:10089D004200202020202020204300202020202046
:0D08AD002020440020202020202020450095
:10085600E4F5A0C282C280C2817F38FE12095B1213
:1008660008DF7F067E0012095B1208DF7F0C7E0020
:1008760012095B1208DF7F017E0012095B1208DF96
:070886007F807E0002095B88
:0408DF007F047E0014
:1008E300E4FDFCC3ED9FEC9E5015E4FBFA0BBB004B
:0F08F300010ABA01F8BB7EF50DBD00010C80E4CF
:0109020022D2
:10095B00C280C281D2828FA07F0A7E001208E3C2BE
:02096B008222E6
:10096D00D280C281D2828FA07F0A7E001208E3C29C
:02097D008222D4
:1008BA008B088A09890AAB08AA09A90A120942609F
:1008CA0013050AE50A7002050914F9120942FF1212
:0508DA00096D80E2221F
:10092400900000B2877F017E001208E3A3E582B441
:0E093400DCF1E583B405EC7FE87E030208E306
:03090300120924B2
:10090600900000B2877F017E001208E3A3E582B45F
:0E091600EEF1E583B402EC7FE87E030208E315
:0609A600120906020924FB
:09098B0012090312090602090613
:09099400120903120924020906EC
:09099D00120924120906020906E0
:0309AC0002090637
:100800007590FF12085630900E7BFF7A08798D1292
:1008100008BA1209A6803D30910E7BFF7A087996BE
:100820001208BA12098B802C30920E7BFF7A08795D
:100830009F1208BA120994801B7BFF30930C7A0830
:1008400079A81208BA12099D800A7A0879B11208AB
:06085000BA1209AC80FEA3
:0300000002097F73
:0C097F00787FE4F6D8FD75810A020800BC
:10094200BB010689828A83E0225002E722BBFE02B3
:09095200E32289828A83E49322E6
:00000001FF
