:100E6D005072657373204120666F72204163636F0A
:100E7D00756E7420646973706C617920616E642085
:100E8D005720666F72207769746864726177696E36
:100E9D006720636173680D0A0048656C6C6F2C20C8
:100EAD00506C6561736520656E7465722041636376
:100EBD006F756E74204E756D6265720D0A0041631B
:100ECD00636F756E7420486F6C6465723A20536958
:100EDD0074610D0A004163636F756E742042616C1D
:100EED00616E63653A000D0A004163636F756E7440
:100EFD0020486F6C6465723A20476974610D0A0071
:100F0D004E6F2073756368206163636F756E742C0B
:100F1D0020706C6561736520656E746572207661F5
:100F2D006C69642064657461696C730D0A0057699E
:100F3D007468647261772073746174652C20656EBA
:100F4D00746572206163636F756E74206E756D626A
:100F5D0065720D0A00456E74657220416D6F756E78
:100F6D00742C20696E2068756E64726564730D0A49
:100F7D000052656D61696E696E672042616C616ECC
:100F8D0063653A00353030204E6F7465733A002C2E
:100F9D0000313030204E6F7465733A00496E7375B1
:100FAD006666696369656E742046756E64730D0AB5
:100FBD0000496E76616C696420416D6F756E740DBC
:100FCD000A004E6F207375636820616374696F6EDC
:100FDD0020706F737369626C652E20506C65617340
:100FED006520456E7465722041206F7220570D0A81
:070FFD0000000000000000ED
:10122900C101C100060E0000000000000608000010
:101239000000000003170000000314000000051A55
:051249000000000000A0
:10126F00758920758DF3759850D28ED2ACD2AF227E
:0A1004007B007A00790EAF26AE25BE
:10100E008E338F348B358A3689377C277D10120EBE
:10101E0018EF2430120DD2AE33AF347C277D101270
:10102E000E187E037FE8CFCDCFCECCCE120E18EFAA
:10103E002430AB35AA36A937900001120DE4AE3339
:10104E00AF347C037DE8120E187E007F64CFCDCFC7
:10105E00CECCCE120E18EF2430AB35AA36A937906F
:10106E000002120DE4AE33AF347C007D64120E1814
:10107E007E007F0ACFCDCFCECCCE120E18EF24300D
:10108E00AB35AA36A937900003120DE4AE33AF3458
:10109E007C007D0A120E18ED2430AB35AA36A93726
:0610AE00900004020DE4B5
:0A1140007B007A00792FAF2CAE2B54
:10114A008E338F348B358A3689377C007D0A120EAE
:10115A00187E007F0ACFCDCFCECCCE120E18EF2448
:10116A0030120DD2AE33AF347C007D0A120E18ED68
:0E117A002430AB35AA36A937900001020DE4EF
:081299008F993001FDC2012212
:0611FE007BFF7A0E79E28E
:101204008B338A348935AB33AA34A935120D376050
:10121400130535E5357002053414F9120D37FF1244
:05122400129980E22296
:09128F00E4FF3000FDC200AF993C
:011298002233
:0300230002127F47
:10127F00309905C299D20132309804C298D2003207
:10124F00E4FDFCC3ED9FEC9E5015E4FBFA0BBB00D5
:0F125F00010ABA01F8BB7EF50DBD00010C80E459
:01126E00225D
:1011D000E4FE74D0120D7D90000174D0120D9F902A
:1011E0000001120D50FD7C00C004C005120D37FF38
:0D11F0007D0A120E06D0E02FFFD0E03EFE7B
:0111FD0022CF
:1011880012128F8F2712128F8F287B007A007927EF
:10119800120D37FF7E00C39430748094804025EF91
:1011A800943A74809480501C900001120D50FFC333
:1011B800943074809480400CEF943A7480948050FA
:0811C800037F0122E4FEFF2277
:10080000E4F521F522752327752410752527752613
:100810001078277C00FD7BFF7A0F79FEFE7F0212A5
:100820000D11E4F529F52AF52BF52CF52DF52E788B
:100830002F7C00FD7BFF7A107900FE7F02120D11E4
:1008400078317C007D007BFF7A1079027E007F0288
:10085000120D1112126F7BFF7A0E796D12120412B3
:10086000128F8F21E52124A970030208F124F6706C
:10087000030209AA24EA7003020A1E243660030256
:100880000C2E7BFF7A0E79A612120412128F8F2281
:10089000E52224CE601A04704C7BFF7A0E79CB12CD
:1008A00012041211FE1210047B007A00790E801FD0
:1008B0007BFF7A0E79F61212041211FE7B007A0089
:1008C0007908AF24AE2312100E7B007A007908124B
:1008D00012047BFF7A0E79F31212047F327E00122B
:1008E000124F020A157BFF7A0F790D121204020AC9
:1008F000157BFF7A0F793B12120412128F8F22E5BB
:100900002224CE604F046003020C267BFF7A0E790E
:10091000CB1212041211FE1210047B007A00790E21
:100920001212047BFF7A0E79F31212047BFF7A0F06
:100930007962121204121188EF4E7003020B1F121B
:1009400011D08E298F2AC3E526952AE525952940C1
:1009500053020A847BFF7A0E79F61212041211FEFA
:100960007B007A007908AF24AE2312100E7B007A48
:100970000079081212047BFF7A0E79F31212047BBD
:10098000FF7A0F7962121204121188EF4E6018126A
:1009900011D08E298F2AC3E524952AE52395294075
:1009A00003020B7B020B16020B1F7BFF7A0E79A64C
:1009B00012120412128F8F22E52224CE601A0470C4
:1009C0004B7BFF7A0E79CB1212041211FE12100427
:1009D0007B007A00790E801F7BFF7A0E79F6121267
:1009E000041211FE7B007A007908AF24AE231210A6
:1009F0000E7B007A0079081212047BFF7A0E79F3DD
:100A00001212047F327E0012124F80097BFF7A0F90
:100A1000790D1212047BFF7A0E796D020C347BFF84
:100A20007A0F793B12120412128F8F22E52224CE04
:100A30007003020B28046003020C267BFF7A0E79F8
:100A4000CB1212041211FE1210047B007A00790EF0
:100A50001212047BFF7A0E79F31212047BFF7A0FD5
:100A60007962121204121188EF4E7003020B1F12EA
:100A700011D08E298F2AC3E526952AE52595295080
:100A800003020B167C007D64120E06C3E5269FF55B
:100A900026E5259EF525AE29AF2A7D05120E188E76
:100AA0002B8F2CAE29AF2A7C007D05120E188C2DC1
:100AB0008D2E7BFF7A0F797E1212041210047B00B8
:100AC0007A00790E1212047BFF7A0E79F312120467
:100AD0007BFF7A0F79911212041211407B007A0089
:100AE000792F1212047BFF7A0F799C1212047BFF7C
:100AF0007A0F799E1212047B007A007931AF2EAE04
:100B00002D12114A7B007A0079311212047BFF7A90
:100B10000E79F3020C347BFF7A0F79A9020C347B37
:100B2000FF7A0F79BE020C347BFF7A0E79F612122F
:100B3000041211FE7B007A007908AF24AE23121054
:100B40000E7B007A0079081212047BFF7A0E79F38B
:100B50001212047BFF7A0F7962121204121188EFCD
:100B60004E7003020C1E1211D08E298F2AC3E52469
:100B7000952AE52395295003020C167C007D64120A
:100B80000E06C3E5249FF524E5239EF523AE29AF89
:100B90002A7D05120E188E2B8F2CAE29AF2A7C00D1
:100BA0007D05120E188C2D8D2E7BFF7A0F797E120B
:100BB00012047B007A007908AF24AE2312100E7B5A
:100BC000007A0079081212047BFF7A0E79F3121270
:100BD000047BFF7A0F79911212041211407B007A84
:100BE00000792F1212047BFF7A0F799C1212047B7A
:100BF000FF7A0F799E1212047B007A007931AF2EB2
:100C0000AE2D12114A7B007A0079311212047BFF5B
:100C10007A0E79F3801E7BFF7A0F79A980167BFF0D
:100C20007A0F79BE800E7BFF7A0F790D80067BFFED
:100C30007A0F79CF1212047F647E0012124F0208DD
:010C40005F54
:030000000210B437
:0C10B400787FE4F6D8FD7581370210FB50
:100C4100E709F608DFFA8046E709F208DFFA803E95
:100C510088828C83E709F0A3DFFA8032E309F60882
:100C6100DFFA8078E309F208DFFA807088828C83EA
:100C7100E309F0A3DFFA806489828A83E0A3F6089E
:100C8100DFFA805889828A83E0A3F208DFFA804C78
:100C910080D280FA80C680D4806980F2803380104F
:100CA10080A680EA809A80A880DA80E280CA8033B8
:100CB10089828A83ECFAE493A3C8C582C8CCC58330
:100CC100CCF0A3C8C582C8CCC583CCDFE9DEE78000
:100CD1000D89828A83E493A3F608DFF9ECFAA9F07F
:100CE100EDFB2289828A83ECFAE0A3C8C582C8CCD5
:100CF100C583CCF0A3C8C582C8CCC583CCDFEADEEE
:100D0100E880DB89828A83E493A3F208DFF980CC4F
:100D110088F0EF60010E4E60C388F0ED2402B40448
:100D21000050B9F582EB2402B4040050AF232345EF
:060D31008223900C917377
:100D3700BB010689828A83E0225002E722BBFE02BA
:090D4700E32289828A83E49322ED
:100D5000BB010CE58229F582E5833AF583E0225058
:100D600006E92582F8E622BBFE06E92582F8E222A2
:0D0D7000E58229F582E5833AF583E49322BC
:100D7D00BB010989828A83F8E028F022500327F706
:100D8D0022BBFE05F8E328F3228A838982F8E493D7
:020D9D0028220A
:100D9F00BB010FF8E58229F582E5833AF583E02858
:100DAF00F0225009C58229F8E58226F622BBFE09FA
:100DBF00C58229F8E22582F222F8EA2583F583E934
:030DCF0093282244
:100DD200BB010689828A83F0225002F722BBFE0100
:020DE200F322FA
:100DE400F8BB010DE58229F582E5833AF583E8F045
:100DF400225006E92582C8F622BBFE05E92582C8F1
:020E0400F222D8
:100E0600EF8DF0A4A8F0CF8CF0A428CE8DF0A42E00
:020E1600FE22BA
:100E1800BC000BBE0029EF8DF084FFADF022E4CCBE
:100E2800F875F008EF2FFFEE33FEEC33FCEE9DEC87
:100E3800984005FCEE9DFE0FD5F0E9E4CEFD22EDCD
:100E4800F8F5F0EE8420D21CFEADF075F008EF2F17
:100E5800FFED33FD4007985006D5F0F222C398FD08
:050E68000FD5F0EA22A5
:1010C000020800E493A3F8E493A34003F68001F23E
:1010D00008DFF48029E493A3F85407240CC8C33331
:1010E000C4540F4420C8834004F456800146F6DF00
:1010F000E4800B0102040810204080901229E47E55
:10110000019360BCA3FF543F30E509541FFEE493F4
:10111000A360010ECF54C025E060A840B8E493A3BB
:10112000FAE493A3F8E493A3C8C582C8CAC583CAE6
:10113000F0A3C8C582C8CAC583CADFE9DEE780BE9E
:01124E00009F
:00000001FF
