:100D99005072657373204120666F72204163636FDF
:100DA900756E7420646973706C617920616E64205A
:100DB9005720666F72207769746864726177696E0B
:100DC9006720636173680D0A0048656C6C6F2C209D
:100DD900506C6561736520656E746572204163634B
:100DE9006F756E74204E756D6265720D0A004163F0
:100DF900636F756E7420486F6C6465723A2053692D
:100E090074610D0A004163636F756E742042616CF1
:100E1900616E63653A000D0A004163636F756E7414
:100E290020486F6C6465723A20476974610D0A0045
:100E39004E6F2073756368206163636F756E742CE0
:100E490020706C6561736520656E746572207661CA
:100E59006C69642064657461696C730D0A00576973
:100E69007468647261772073746174652C20656E8F
:100E7900746572206163636F756E74206E756D623F
:100E890065720D0A00506C6561736520656E746545
:100E9900722070617373776F72640D0A00496E7600
:100EA900616C69642050617373776F726400456E79
:100EB90074657220416D6F756E742C20696E20689F
:100EC900756E64726564730D0A0052656D61696EB1
:100ED900696E672042616C616E63653A0035303036
:100EE900204E6F7465733A002C00313030204E6FFC
:100EF9007465733A00496E73756666696369656EF0
:100F0900742046756E64730D0A00496E76616C69CA
:100F19006420416D6F756E740D0A004E6F207375F4
:100F2900636820616374696F6E20706F737369629F
:100F39006C652E20506C6561736520456E74657211
:100F49002041206F7220570D0A00000000000000A8
:100F590045453333370055504C41420045453333FD
:080F6900370055504C414200D5
:10123D00C101C100060E00000000000006080000FC
:10124D000000000003170000000314000000051A41
:05125D0000000000008C
:10128300758920758DF3759850D28ED2ACD2AF226A
:0A0F71007B007A00790EAF26AE2552
:100F7B008E4B8F4C8B4D8A4E894F7C277D10120DDB
:100F8B0044EF2430120CFEAE4BAF4C7C277D10127D
:100F9B000D447E037FE8CFCDCFCECCCE120D44EFE8
:100FAB002430AB4DAA4EA94F900001120D10AE4B41
:100FBB00AF4C7C037DE8120D447E007F64CFCDCF18
:100FCB00CECCCE120D44EF2430AB4DAA4EA94F9090
:100FDB000002120D10AE4BAF4C7C007D64120D4421
:100FEB007E007F0ACFCDCFCECCCE120D44EF243076
:100FFB00AB4DAA4EA94F900003120D10AE4BAF4C48
:10100B007C007D0A120D44ED2430AB4DAA4EA94F46
:06101B00900004020D101C
:1011D1008E4B8F4C8B4D8A4E894F7C007D0A120DB0
:1011E100447E007F0ACFCDCFCECCCE120D44EF246A
:1011F10030120CFEAE4BAF4C7C007D0A120D44ED5B
:0E1201002430AB4DAA4EA94F900001020D10F3
:0812AD008F993001FDC20122FE
:10118A00AE29AF2A7D05120D448E2B8F2CAE29AFC6
:10119A002A7C007D05120D448C2D8D2E7BFF7A0E44
:0211AA0079D3F7
:1011AC008B4B8A4C894DAB4BAA4CA94D120C6360EE
:1011BC0013054DE54D7002054C14F9120C63FF122A
:0511CC0012AD80E222DB
:0912A300E4FF3000FDC200AF9928
:0112AC00221F
:0300230002129333
:10129300309905C299D20132309804C298D20032F3
:10126300E4FDFCC3ED9FEC9E5015E4FBFA0BBB00C1
:0F127300010ABA01F8BB7EF50DBD00010C80E445
:011282002249
:10120F00E4FE74D0120CA990000174D0120CCB9094
:10121F000001120C7CFD7C00C004C005120C63FFA2
:0D122F007D0A120D32D0E02FFFD0E03EFE10
:01123C00228F
:101142001212A38F271212A38F287B007A0079270D
:10115200120C63FF7E00C39430748094804025EFAC
:10116200943A74809480501C900001120C7CFFC34E
:10117200943074809480400CEF943A748094805040
:08118200037F0122E4FEFF22BD
:101021008B4B8A4C894DAB4EAA4FA950120C63FFD2
:10103100AB4BAA4CA94D120C636F7075AB4EAA4F06
:10104100A950900001120C7CFFAB4BAA4CA94D900A
:101051000001120C7C6F7059AB4EAA4FA950900041
:1010610002120C7CFFAB4BAA4CA94D900002120C52
:101071007C6F703DAB4EAA4FA950900003120C7CBF
:10108100FFAB4BAA4CA94D900003120C7CB5072174
:10109100AB4EAA4FA950900004120C7CFFAB4BAA97
:1010A1004CA94D900004120C7CB507057E007F0110
:0510B10022E4FEFF2215
:10080000E4F521F522752327752410752527752613
:100810001078277C00FD7BFF7A0F7953FE7F021250
:100820000C3DE4F529F52AF52BF52CF52DF52E7860
:100830002F7C00FD7BFF7A0F7955FE7F02120C3D65
:1008400078317C007D007BFF7A0F79577E007F0234
:10085000120C3D78337C007D007BFF7A0F79597E46
:10086000007F06120C3D78397C007D007BFF7A0FFB
:10087000795F7E007F06120C3D783F7C007D007B17
:10088000FF7A0F79657E007F06120C3D78457C006B
:100890007D007BFF7A0F796B7E007F06120C3D1284
:1008A00012837BFF7A0D79991211AC1212A38F215A
:1008B000E521B46103752141E521B4770375215722
:1008C000E52124A9700302094B24166003020B5A88
:1008D0007BFF7A0D79D21211AC1212A38F22E5227E
:1008E00024CE60200470587BFF7A0D79F71211AC8A
:1008F0007BFF7A0E790E1211AC120F717B007A0019
:10090000790E80257BFF7A0E79221211AC7BFF7A5B
:100910000E790E1211AC7B007A007908AF24AE2359
:10092000120F7B7B007A0079081211AC7BFF7A0EE4
:10093000791F1211AC7F327E00121263020A5D7BB6
:10094000FF7A0E79391211AC020A5D7BFF7A0E79BB
:10095000671211AC1212A38F22E52224CE7003027B
:100960000A1C046003020B527BFF7A0E798E12116F
:10097000AC1212A38F3F1212A38F401212A38F4109
:100980001212A38F421212A38F43754E00754F00AF
:100990007550337B007A00793F121021EF4E700CB6
:1009A0007BFF7A0E79A61211AC020A5D7BFF7A0DED
:1009B00079F71211AC7BFF7A0E790E1211AC120F7F
:1009C000717B007A00790E1211AC7BFF7A0E791FD1
:1009D0001211AC7BFF7A0E79B71211AC121142EFF3
:1009E0004E7003020B4A12120F8E298F2AC3E5267E
:1009F000952AE52595295003020B427C007D64125F
:100A00000D32C3E5269FF526E5259EF52512118AB0
:100A1000120F717B007A00790E020AE77BFF7A0ED3
:100A2000798E1211AC1212A38F451212A38F4612A7
:100A300012A38F471212A38F481212A38F49754E2B
:100A400000754F007550397B007A007945121021EE
:100A5000EF4E70127BFF7A0E79A61211AC7BFF7AF3
:100A60000D7999020B607BFF7A0E79221211AC7B13
:100A7000FF7A0E790E1211AC7B007A007908AF2450
:100A8000AE23120F7B7B007A0079081211AC7BFF3A
:100A90007A0E791F1211AC7BFF7A0E79B71211AC66
:100AA000121142EF4E7003020B4A12120F8E298F61
:100AB0002AC3E524952AE52395295003020B427C9D
:100AC000007D64120D32C3E5249FF524E5239EF5D5
:100AD0002312118A7B007A007908AF24AE23120F0B
:100AE0007B7B007A0079081211AC7BFF7A0E791FAC
:100AF0001211AC7BFF7A0E79E61211AC7B007A0002
:100B0000792FAF2CAE2B1211D17B007A00792F12E6
:100B100011AC7BFF7A0E79F11211AC7BFF7A0E7962
:100B2000F31211AC7B007A007931AF2EAE2D121189
:100B3000D17B007A0079311211AC7BFF7A0E791FDC
:100B4000801E7BFF7A0E79FE80167BFF7A0F791369
:100B5000800E7BFF7A0E793980067BFF7A0F79242D
:0D0B60001211AC7F647E001212630208AB1C
:030000000210B635
:0C10B600787FE4F6D8FD7581500210FD33
:100B6D00E709F608DFFA8046E709F208DFFA803E6A
:100B7D0088828C83E709F0A3DFFA8032E309F60857
:100B8D00DFFA8078E309F208DFFA807088828C83BF
:100B9D00E309F0A3DFFA806489828A83E0A3F60873
:100BAD00DFFA805889828A83E0A3F208DFFA804C4D
:100BBD0080D280FA80C680D4806980F28033801024
:100BCD0080A680EA809A80A880DA80E280CA80338D
:100BDD0089828A83ECFAE493A3C8C582C8CCC58305
:100BED00CCF0A3C8C582C8CCC583CCDFE9DEE780D5
:100BFD000D89828A83E493A3F608DFF9ECFAA9F054
:100C0D00EDFB2289828A83ECFAE0A3C8C582C8CCA9
:100C1D00C583CCF0A3C8C582C8CCC583CCDFEADEC2
:100C2D00E880DB89828A83E493A3F208DFF980CC24
:100C3D0088F0EF60010E4E60C388F0ED2402B4041D
:100C4D000050B9F582EB2402B4040050AF232345C4
:060C5D008223900BBD7321
:100C6300BB010689828A83E0225002E722BBFE028F
:090C7300E32289828A83E49322C2
:100C7C00BB010CE58229F582E5833AF583E022502D
:100C8C0006E92582F8E622BBFE06E92582F8E22277
:0D0C9C00E58229F582E5833AF583E4932291
:100CA900BB010989828A83F8E028F022500327F7DB
:100CB90022BBFE05F8E328F3228A838982F8E493AC
:020CC9002822DF
:100CCB00BB010FF8E58229F582E5833AF583E0282D
:100CDB00F0225009C58229F8E58226F622BBFE09CF
:100CEB00C58229F8E22582F222F8EA2583F583E909
:030CFB0093282219
:100CFE00BB010689828A83F0225002F722BBFE01D5
:020D0E00F322CE
:100D1000F8BB010DE58229F582E5833AF583E8F019
:100D2000225006E92582C8F622BBFE05E92582C8C5
:020D3000F222AD
:100D3200EF8DF0A4A8F0CF8CF0A428CE8DF0A42ED5
:020D4200FE228F
:100D4400BC000BBE0029EF8DF084FFADF022E4CC93
:100D5400F875F008EF2FFFEE33FEEC33FCEE9DEC5C
:100D6400984005FCEE9DFE0FD5F0E9E4CEFD22EDA2
:100D7400F8F5F0EE8420D21CFEADF075F008EF2FEC
:100D8400FFED33FD4007985006D5F0F222C398FDDD
:050D94000FD5F0EA227A
:1010C200020800E493A3F8E493A34003F68001F23C
:1010D20008DFF48029E493A3F85407240CC8C3332F
:1010E200C4540F4420C8834004F456800146F6DFFE
:1010F200E4800B010204081020408090123DE47E3F
:10110200019360BCA3FF543F30E509541FFEE493F2
:10111200A360010ECF54C025E060A840B8E493A3B9
:10112200FAE493A3F8E493A3C8C582C8CAC583CAE4
:10113200F0A3C8C582C8CAC583CADFE9DEE780BE9C
:01126200008B
:00000001FF
